{
  "_format": "hh-sol-artifact-1",
  "contractName": "Vault",
  "sourceName": "contracts/Vault.sol",
  "abi": [
    {
      "inputs": [
        {
          "internalType": "address",
          "name": "_tokenAddress",
          "type": "address"
        }
      ],
      "stateMutability": "nonpayable",
      "type": "constructor"
    },
    {
      "anonymous": false,
      "inputs": [
        {
          "indexed": true,
          "internalType": "address",
          "name": "user",
          "type": "address"
        },
        {
          "indexed": false,
          "internalType": "uint256",
          "name": "amount",
          "type": "uint256"
        }
      ],
      "name": "Deposit",
      "type": "event"
    },
    {
      "anonymous": false,
      "inputs": [
        {
          "indexed": true,
          "internalType": "address",
          "name": "user",
          "type": "address"
        },
        {
          "indexed": false,
          "internalType": "uint256",
          "name": "amount",
          "type": "uint256"
        }
      ],
      "name": "Withdrawn",
      "type": "event"
    },
    {
      "inputs": [],
      "name": "balanceOf",
      "outputs": [
        {
          "internalType": "uint256",
          "name": "",
          "type": "uint256"
        }
      ],
      "stateMutability": "view",
      "type": "function"
    },
    {
      "inputs": [
        {
          "internalType": "uint256",
          "name": "amount",
          "type": "uint256"
        }
      ],
      "name": "deposit",
      "outputs": [],
      "stateMutability": "nonpayable",
      "type": "function"
    },
    {
      "inputs": [],
      "name": "token",
      "outputs": [
        {
          "internalType": "contract IERC20",
          "name": "",
          "type": "address"
        }
      ],
      "stateMutability": "view",
      "type": "function"
    },
    {
      "inputs": [
        {
          "internalType": "address",
          "name": "user",
          "type": "address"
        }
      ],
      "name": "userBalance",
      "outputs": [
        {
          "internalType": "uint256",
          "name": "",
          "type": "uint256"
        }
      ],
      "stateMutability": "view",
      "type": "function"
    },
    {
      "inputs": [
        {
          "internalType": "uint256",
          "name": "amount",
          "type": "uint256"
        }
      ],
      "name": "withdraw",
      "outputs": [],
      "stateMutability": "nonpayable",
      "type": "function"
    }
  ],
  "bytecode": "0x608060405234801561001057600080fd5b50604051610d0e380380610d0e8339818101604052810190610032919061014a565b600073ffffffffffffffffffffffffffffffffffffffff168173ffffffffffffffffffffffffffffffffffffffff16036100a1576040517f08c379a0000000000000000000000000000000000000000000000000000000008152600401610098906101d4565b60405180910390fd5b806000806101000a81548173ffffffffffffffffffffffffffffffffffffffff021916908373ffffffffffffffffffffffffffffffffffffffff160217905550506101f4565b600080fd5b600073ffffffffffffffffffffffffffffffffffffffff82169050919050565b6000610117826100ec565b9050919050565b6101278161010c565b811461013257600080fd5b50565b6000815190506101448161011e565b92915050565b6000602082840312156101605761015f6100e7565b5b600061016e84828501610135565b91505092915050565b600082825260208201905092915050565b7f4e6f74206120746f6b656e206164647265737300000000000000000000000000600082015250565b60006101be601383610177565b91506101c982610188565b602082019050919050565b600060208201905081810360008301526101ed816101b1565b9050919050565b610b0b806102036000396000f3fe608060405234801561001057600080fd5b50600436106100575760003560e01c80630103c92b1461005c5780632e1a7d4d1461008c578063722713f7146100a8578063b6b55f25146100c6578063fc0c546a146100e2575b600080fd5b61007660048036038101906100719190610684565b610100565b60405161008391906106ca565b60405180910390f35b6100a660048036038101906100a19190610711565b610149565b005b6100b0610392565b6040516100bd91906106ca565b60405180910390f35b6100e060048036038101906100db9190610711565b610434565b005b6100ea6105fd565b6040516100f7919061079d565b60405180910390f35b6000600160008373ffffffffffffffffffffffffffffffffffffffff1673ffffffffffffffffffffffffffffffffffffffff168152602001908152602001600020549050919050565b6000811161018c576040517f08c379a000000000000000000000000000000000000000000000000000000000815260040161018390610815565b60405180910390fd5b80600160003373ffffffffffffffffffffffffffffffffffffffff1673ffffffffffffffffffffffffffffffffffffffff16815260200190815260200160002054101561020e576040517f08c379a000000000000000000000000000000000000000000000000000000000815260040161020590610881565b60405180910390fd5b80600160003373ffffffffffffffffffffffffffffffffffffffff1673ffffffffffffffffffffffffffffffffffffffff168152602001908152602001600020600082825461025d91906108d0565b9250508190555060008054906101000a900473ffffffffffffffffffffffffffffffffffffffff1673ffffffffffffffffffffffffffffffffffffffff1663a9059cbb33836040518363ffffffff1660e01b81526004016102bf929190610913565b6020604051808303816000875af11580156102de573d6000803e3d6000fd5b505050506040513d601f19601f820116820180604052508101906103029190610974565b610341576040517f08c379a0000000000000000000000000000000000000000000000000000000008152600401610338906109ed565b60405180910390fd5b3373ffffffffffffffffffffffffffffffffffffffff167f7084f5476618d8e60b11ef0d7d3f06914655adb8793e28ff7f018d4c76d505d58260405161038791906106ca565b60405180910390a250565b60008060009054906101000a900473ffffffffffffffffffffffffffffffffffffffff1673ffffffffffffffffffffffffffffffffffffffff166370a08231306040518263ffffffff1660e01b81526004016103ee9190610a0d565b602060405180830381865afa15801561040b573d6000803e3d6000fd5b505050506040513d601f19601f8201168201806040525081019061042f9190610a3d565b905090565b60008111610477576040517f08c379a000000000000000000000000000000000000000000000000000000000815260040161046e90610815565b60405180910390fd5b60008054906101000a900473ffffffffffffffffffffffffffffffffffffffff1673ffffffffffffffffffffffffffffffffffffffff166323b872dd3330846040518463ffffffff1660e01b81526004016104d493929190610a6a565b6020604051808303816000875af11580156104f3573d6000803e3d6000fd5b505050506040513d601f19601f820116820180604052508101906105179190610974565b610556576040517f08c379a000000000000000000000000000000000000000000000000000000000815260040161054d906109ed565b60405180910390fd5b80600160003373ffffffffffffffffffffffffffffffffffffffff1673ffffffffffffffffffffffffffffffffffffffff16815260200190815260200160002060008282546105a59190610aa1565b925050819055503373ffffffffffffffffffffffffffffffffffffffff167fe1fffcc4923d04b559f4d29a8bfc6cda04eb5b0d3c460751c2402c5c5cc9109c826040516105f291906106ca565b60405180910390a250565b60008054906101000a900473ffffffffffffffffffffffffffffffffffffffff1681565b600080fd5b600073ffffffffffffffffffffffffffffffffffffffff82169050919050565b600061065182610626565b9050919050565b61066181610646565b811461066c57600080fd5b50565b60008135905061067e81610658565b92915050565b60006020828403121561069a57610699610621565b5b60006106a88482850161066f565b91505092915050565b6000819050919050565b6106c4816106b1565b82525050565b60006020820190506106df60008301846106bb565b92915050565b6106ee816106b1565b81146106f957600080fd5b50565b60008135905061070b816106e5565b92915050565b60006020828403121561072757610726610621565b5b6000610735848285016106fc565b91505092915050565b6000819050919050565b600061076361075e61075984610626565b61073e565b610626565b9050919050565b600061077582610748565b9050919050565b60006107878261076a565b9050919050565b6107978161077c565b82525050565b60006020820190506107b2600083018461078e565b92915050565b600082825260208201905092915050565b7f416d6f756e74206973206e6f742067726561746572207468616e207a65726f00600082015250565b60006107ff601f836107b8565b915061080a826107c9565b602082019050919050565b6000602082019050818103600083015261082e816107f2565b9050919050565b7f496e73756666696369656e742062616c616e6365000000000000000000000000600082015250565b600061086b6014836107b8565b915061087682610835565b602082019050919050565b6000602082019050818103600083015261089a8161085e565b9050919050565b7f4e487b7100000000000000000000000000000000000000000000000000000000600052601160045260246000fd5b60006108db826106b1565b91506108e6836106b1565b92508282039050818111156108fe576108fd6108a1565b5b92915050565b61090d81610646565b82525050565b60006040820190506109286000830185610904565b61093560208301846106bb565b9392505050565b60008115159050919050565b6109518161093c565b811461095c57600080fd5b50565b60008151905061096e81610948565b92915050565b60006020828403121561098a57610989610621565b5b60006109988482850161095f565b91505092915050565b7f5472616e73666572206661696c65640000000000000000000000000000000000600082015250565b60006109d7600f836107b8565b91506109e2826109a1565b602082019050919050565b60006020820190508181036000830152610a06816109ca565b9050919050565b6000602082019050610a226000830184610904565b92915050565b600081519050610a37816106e5565b92915050565b600060208284031215610a5357610a52610621565b5b6000610a6184828501610a28565b91505092915050565b6000606082019050610a7f6000830186610904565b610a8c6020830185610904565b610a9960408301846106bb565b949350505050565b6000610aac826106b1565b9150610ab7836106b1565b9250828201905080821115610acf57610ace6108a1565b5b9291505056fea264697066735822122064fcf29c7176aba3a729134d2fddba65191c3206d23f57ca70efce941c2f38ec64736f6c634300081c0033",
  "linkReferences": {},
  "deployedLinkReferences": {}
}